{
  "_format": "hh-sol-artifact-1",
  "contractName": "Tournaments",
  "sourceName": "contracts/Tournaments.sol",
  "abi": [
    {
      "inputs": [],
      "stateMutability": "nonpayable",
      "type": "constructor"
    },
    {
      "anonymous": false,
      "inputs": [
        {
          "indexed": true,
          "internalType": "address",
          "name": "previousOwner",
          "type": "address"
        },
        {
          "indexed": true,
          "internalType": "address",
          "name": "newOwner",
          "type": "address"
        }
      ],
      "name": "OwnershipTransferred",
      "type": "event"
    },
    {
      "anonymous": false,
      "inputs": [
        {
          "indexed": false,
          "internalType": "uint256",
          "name": "id",
          "type": "uint256"
        },
        {
          "indexed": false,
          "internalType": "uint256",
          "name": "lobbySize",
          "type": "uint256"
        }
      ],
      "name": "TournamentAdded",
      "type": "event"
    },
    {
      "anonymous": false,
      "inputs": [
        {
          "indexed": false,
          "internalType": "uint256",
          "name": "tournamentId",
          "type": "uint256"
        }
      ],
      "name": "TournamentStarted",
      "type": "event"
    },
    {
      "anonymous": false,
      "inputs": [
        {
          "indexed": false,
          "internalType": "uint256",
          "name": "tournamentId",
          "type": "uint256"
        },
        {
          "indexed": false,
          "internalType": "address",
          "name": "user",
          "type": "address"
        }
      ],
      "name": "UserJoinedTournament",
      "type": "event"
    },
    {
      "inputs": [
        {
          "internalType": "uint256",
          "name": "_tournamentId",
          "type": "uint256"
        },
        {
          "internalType": "address",
          "name": "_user",
          "type": "address"
        },
        {
          "internalType": "uint256",
          "name": "_score",
          "type": "uint256"
        }
      ],
      "name": "addScore",
      "outputs": [
        {
          "internalType": "bool",
          "name": "_done",
          "type": "bool"
        }
      ],
      "stateMutability": "nonpayable",
      "type": "function"
    },
    {
      "inputs": [
        {
          "internalType": "uint256",
          "name": "_lobbySize",
          "type": "uint256"
        }
      ],
      "name": "addTournament",
      "outputs": [],
      "stateMutability": "nonpayable",
      "type": "function"
    },
    {
      "inputs": [],
      "name": "getActiveTournaments",
      "outputs": [
        {
          "components": [
            {
              "internalType": "uint256",
              "name": "id",
              "type": "uint256"
            },
            {
              "internalType": "uint256",
              "name": "lobbySize",
              "type": "uint256"
            },
            {
              "internalType": "uint256",
              "name": "startTime",
              "type": "uint256"
            },
            {
              "internalType": "uint256",
              "name": "endTime",
              "type": "uint256"
            }
          ],
          "internalType": "struct Tournaments.Tournament[]",
          "name": "",
          "type": "tuple[]"
        }
      ],
      "stateMutability": "view",
      "type": "function"
    },
    {
      "inputs": [
        {
          "internalType": "uint256",
          "name": "_tournamentId",
          "type": "uint256"
        }
      ],
      "name": "getLeaderboard",
      "outputs": [
        {
          "components": [
            {
              "internalType": "address",
              "name": "user",
              "type": "address"
            },
            {
              "internalType": "uint256",
              "name": "score",
              "type": "uint256"
            }
          ],
          "internalType": "struct Tournaments.User[]",
          "name": "",
          "type": "tuple[]"
        }
      ],
      "stateMutability": "view",
      "type": "function"
    },
    {
      "inputs": [],
      "name": "getOngoingTournaments",
      "outputs": [
        {
          "components": [
            {
              "internalType": "uint256",
              "name": "id",
              "type": "uint256"
            },
            {
              "internalType": "uint256",
              "name": "lobbySize",
              "type": "uint256"
            },
            {
              "internalType": "uint256",
              "name": "startTime",
              "type": "uint256"
            },
            {
              "internalType": "uint256",
              "name": "endTime",
              "type": "uint256"
            }
          ],
          "internalType": "struct Tournaments.Tournament[]",
          "name": "",
          "type": "tuple[]"
        }
      ],
      "stateMutability": "view",
      "type": "function"
    },
    {
      "inputs": [
        {
          "internalType": "uint256",
          "name": "_tournamentId",
          "type": "uint256"
        }
      ],
      "name": "getSingleTournament",
      "outputs": [
        {
          "components": [
            {
              "internalType": "uint256",
              "name": "id",
              "type": "uint256"
            },
            {
              "internalType": "uint256",
              "name": "lobbySize",
              "type": "uint256"
            },
            {
              "internalType": "uint256",
              "name": "startTime",
              "type": "uint256"
            },
            {
              "internalType": "uint256",
              "name": "endTime",
              "type": "uint256"
            }
          ],
          "internalType": "struct Tournaments.Tournament",
          "name": "",
          "type": "tuple"
        }
      ],
      "stateMutability": "view",
      "type": "function"
    },
    {
      "inputs": [
        {
          "internalType": "uint256",
          "name": "_tournamentId",
          "type": "uint256"
        }
      ],
      "name": "getTourParticipants",
      "outputs": [
        {
          "components": [
            {
              "internalType": "address",
              "name": "user",
              "type": "address"
            },
            {
              "internalType": "uint256",
              "name": "score",
              "type": "uint256"
            }
          ],
          "internalType": "struct Tournaments.User[]",
          "name": "",
          "type": "tuple[]"
        }
      ],
      "stateMutability": "view",
      "type": "function"
    },
    {
      "inputs": [
        {
          "internalType": "uint256",
          "name": "_tournamentId",
          "type": "uint256"
        }
      ],
      "name": "joinTournament",
      "outputs": [
        {
          "internalType": "bool",
          "name": "",
          "type": "bool"
        }
      ],
      "stateMutability": "nonpayable",
      "type": "function"
    },
    {
      "inputs": [],
      "name": "owner",
      "outputs": [
        {
          "internalType": "address",
          "name": "",
          "type": "address"
        }
      ],
      "stateMutability": "view",
      "type": "function"
    },
    {
      "inputs": [],
      "name": "renounceOwnership",
      "outputs": [],
      "stateMutability": "nonpayable",
      "type": "function"
    },
    {
      "inputs": [],
      "name": "tourDuration",
      "outputs": [
        {
          "internalType": "uint256",
          "name": "",
          "type": "uint256"
        }
      ],
      "stateMutability": "view",
      "type": "function"
    },
    {
      "inputs": [
        {
          "internalType": "uint256",
          "name": "",
          "type": "uint256"
        },
        {
          "internalType": "uint256",
          "name": "",
          "type": "uint256"
        }
      ],
      "name": "tourParticipants",
      "outputs": [
        {
          "internalType": "address",
          "name": "user",
          "type": "address"
        },
        {
          "internalType": "uint256",
          "name": "score",
          "type": "uint256"
        }
      ],
      "stateMutability": "view",
      "type": "function"
    },
    {
      "inputs": [
        {
          "internalType": "uint256",
          "name": "",
          "type": "uint256"
        }
      ],
      "name": "tournaments",
      "outputs": [
        {
          "internalType": "uint256",
          "name": "id",
          "type": "uint256"
        },
        {
          "internalType": "uint256",
          "name": "lobbySize",
          "type": "uint256"
        },
        {
          "internalType": "uint256",
          "name": "startTime",
          "type": "uint256"
        },
        {
          "internalType": "uint256",
          "name": "endTime",
          "type": "uint256"
        }
      ],
      "stateMutability": "view",
      "type": "function"
    },
    {
      "inputs": [
        {
          "internalType": "address",
          "name": "newOwner",
          "type": "address"
        }
      ],
      "name": "transferOwnership",
      "outputs": [],
      "stateMutability": "nonpayable",
      "type": "function"
    }
  ],
  "bytecode": "0x60806040523480156200001157600080fd5b5062000032620000266200003860201b60201c565b6200004060201b60201c565b62000104565b600033905090565b60008060009054906101000a900473ffffffffffffffffffffffffffffffffffffffff169050816000806101000a81548173ffffffffffffffffffffffffffffffffffffffff021916908373ffffffffffffffffffffffffffffffffffffffff1602179055508173ffffffffffffffffffffffffffffffffffffffff168173ffffffffffffffffffffffffffffffffffffffff167f8be0079c531659141344cd1fd0a4f28419497f9722a3daafe3b4186f6b6457e060405160405180910390a35050565b61276880620001146000396000f3fe608060405234801561001057600080fd5b50600436106100ea5760003560e01c80637ae78ec11161008c578063d013288711610066578063d013288714610263578063d115cac614610293578063eb7b0663146102c3578063f2fde38b146102e1576100ea565b80637ae78ec1146101f95780638da5cb5b14610215578063a34b46fe14610233576100ea565b8063692734fe116100c8578063692734fe146101805780636bd48c991461019e578063715018a6146101bc5780637503e1b7146101c6576100ea565b80633a05df8c146100ef57806365dec2c91461011f57806367c5ea8514610150575b600080fd5b61010960048036038101906101049190611ddd565b6102fd565b604051610116919061246a565b60405180910390f35b61013960048036038101906101349190611e55565b610399565b6040516101479291906122e2565b60405180910390f35b61016a60048036038101906101659190611e06565b6103fa565b604051610177919061234f565b60405180910390f35b610188610749565b604051610195919061230b565b60405180910390f35b6101a6610a4f565b6040516101b3919061230b565b60405180910390f35b6101c4610eb5565b005b6101e060048036038101906101db9190611ddd565b610ec9565b6040516101f094939291906124f2565b60405180910390f35b610213600480360381019061020e9190611ddd565b610f09565b005b61021d610fdc565b60405161022a91906122c7565b60405180910390f35b61024d60048036038101906102489190611ddd565b611005565b60405161025a919061232d565b60405180910390f35b61027d60048036038101906102789190611ddd565b6111c8565b60405161028a919061232d565b60405180910390f35b6102ad60048036038101906102a89190611ddd565b6112a0565b6040516102ba919061234f565b60405180910390f35b6102cb6117f8565b6040516102d89190612485565b60405180910390f35b6102fb60048036038101906102f69190611db4565b6117fe565b005b610305611d62565b600060026001846103169190612610565b8154811061034d577f4e487b7100000000000000000000000000000000000000000000000000000000600052603260045260246000fd5b9060005260206000209060040201604051806080016040529081600082015481526020016001820154815260200160028201548152602001600382015481525050905080915050919050565b600160205281600052604060002081815481106103b557600080fd5b9060005260206000209060020201600091509150508060000160009054906101000a900473ffffffffffffffffffffffffffffffffffffffff16908060010154905082565b6000836000600260018361040e9190612610565b81548110610445577f4e487b7100000000000000000000000000000000000000000000000000000000600052603260045260246000fd5b906000526020600020906004020160405180608001604052908160008201548152602001600182015481526020016002820154815260200160038201548152505090506000816040015114156104d0576040517f08c379a00000000000000000000000000000000000000000000000000000000081526004016104c7906123ea565b60405180910390fd5b80606001514210610516576040517f08c379a000000000000000000000000000000000000000000000000000000000815260040161050d9061238a565b60405180910390fd5b61051e611882565b600060016000888152602001908152602001600020805480602002602001604051908101604052809291908181526020016000905b828210156105e557838290600052602060002090600202016040518060400160405290816000820160009054906101000a900473ffffffffffffffffffffffffffffffffffffffff1673ffffffffffffffffffffffffffffffffffffffff1673ffffffffffffffffffffffffffffffffffffffff16815260200160018201548152505081526020019060010190610553565b50505050905060005b815181101561073d578673ffffffffffffffffffffffffffffffffffffffff16828281518110610647577f4e487b7100000000000000000000000000000000000000000000000000000000600052603260045260246000fd5b60200260200101516000015173ffffffffffffffffffffffffffffffffffffffff16141561072a57858282815181106106a9577f4e487b7100000000000000000000000000000000000000000000000000000000600052603260045260246000fd5b6020026020010151602001516106bf91906125ba565b600160008a8152602001908152602001600020828154811061070a577f4e487b7100000000000000000000000000000000000000000000000000000000600052603260045260246000fd5b906000526020600020906002020160010181905550600194505050610740565b80806107359061268c565b9150506105ee565b50505b50509392505050565b60606000805b60028054905081101561082957600060028281548110610798577f4e487b7100000000000000000000000000000000000000000000000000000000600052603260045260246000fd5b90600052602060002090600402016002015414801561080257506000600282815481106107ee577f4e487b7100000000000000000000000000000000000000000000000000000000600052603260045260246000fd5b906000526020600020906004020160030154145b156108165781806108129061268c565b9250505b80806108219061268c565b91505061074f565b5060008167ffffffffffffffff81111561086c577f4e487b7100000000000000000000000000000000000000000000000000000000600052604160045260246000fd5b6040519080825280602002602001820160405280156108a557816020015b610892611d62565b81526020019060019003908161088a5790505b5090506000805b600280549050811015610a45576000600282815481106108f5577f4e487b7100000000000000000000000000000000000000000000000000000000600052603260045260246000fd5b90600052602060002090600402016002015414801561095f575060006002828154811061094b577f4e487b7100000000000000000000000000000000000000000000000000000000600052603260045260246000fd5b906000526020600020906004020160030154145b15610a32576002818154811061099e577f4e487b7100000000000000000000000000000000000000000000000000000000600052603260045260246000fd5b9060005260206000209060040201604051806080016040529081600082015481526020016001820154815260200160028201548152602001600382015481525050838381518110610a18577f4e487b7100000000000000000000000000000000000000000000000000000000600052603260045260246000fd5b60200260200101819052508180610a2e9061268c565b9250505b8080610a3d9061268c565b9150506108ac565b5081935050505090565b60606000805b600280549050811015610bdf5760028181548110610a9c577f4e487b7100000000000000000000000000000000000000000000000000000000600052603260045260246000fd5b9060005260206000209060040201600201544210158015610b095750600060028281548110610af4577f4e487b7100000000000000000000000000000000000000000000000000000000600052603260045260246000fd5b90600052602060002090600402016002015414155b8015610b60575060028181548110610b4a577f4e487b7100000000000000000000000000000000000000000000000000000000600052603260045260246000fd5b9060005260206000209060040201600301544211155b8015610bb85750600060028281548110610ba3577f4e487b7100000000000000000000000000000000000000000000000000000000600052603260045260246000fd5b90600052602060002090600402016003015414155b15610bcc578180610bc89061268c565b9250505b8080610bd79061268c565b915050610a55565b5060008167ffffffffffffffff811115610c22577f4e487b7100000000000000000000000000000000000000000000000000000000600052604160045260246000fd5b604051908082528060200260200182016040528015610c5b57816020015b610c48611d62565b815260200190600190039081610c405790505b5090506000805b600280549050811015610eab5760028181548110610ca9577f4e487b7100000000000000000000000000000000000000000000000000000000600052603260045260246000fd5b9060005260206000209060040201600201544210158015610d165750600060028281548110610d01577f4e487b7100000000000000000000000000000000000000000000000000000000600052603260045260246000fd5b90600052602060002090600402016002015414155b8015610d6d575060028181548110610d57577f4e487b7100000000000000000000000000000000000000000000000000000000600052603260045260246000fd5b9060005260206000209060040201600301544211155b8015610dc55750600060028281548110610db0577f4e487b7100000000000000000000000000000000000000000000000000000000600052603260045260246000fd5b90600052602060002090600402016003015414155b15610e985760028181548110610e04577f4e487b7100000000000000000000000000000000000000000000000000000000600052603260045260246000fd5b9060005260206000209060040201604051806080016040529081600082015481526020016001820154815260200160028201548152602001600382015481525050838381518110610e7e577f4e487b7100000000000000000000000000000000000000000000000000000000600052603260045260246000fd5b60200260200101819052508180610e949061268c565b9250505b8080610ea39061268c565b915050610c62565b5081935050505090565b610ebd611882565b610ec76000611900565b565b60028181548110610ed957600080fd5b90600052602060002090600402016000915090508060000154908060010154908060020154908060030154905084565b610f11611882565b60006001600280549050610f2591906125ba565b90506002604051806080016040528083815260200184815260200160008152602001600081525090806001815401808255809150506001900390600052602060002090600402016000909190919091506000820151816000015560208201518160010155604082015181600201556060820151816003015550507fc4de91610eebb6bc13a561c110fb5222b4ceb6f43f052f6a8b004c6067a3e7678183604051610fd09291906124c9565b60405180910390a15050565b60008060009054906101000a900473ffffffffffffffffffffffffffffffffffffffff16905090565b6060600060026001846110189190612610565b8154811061104f577f4e487b7100000000000000000000000000000000000000000000000000000000600052603260045260246000fd5b906000526020600020906004020160405180608001604052908160008201548152602001600182015481526020016002820154815260200160038201548152505090508060600151421180156110aa57506000816060015114155b6110e9576040517f08c379a00000000000000000000000000000000000000000000000000000000081526004016110e09061240a565b60405180910390fd5b60006111bc60016000868152602001908152602001600020805480602002602001604051908101604052809291908181526020016000905b828210156111b357838290600052602060002090600202016040518060400160405290816000820160009054906101000a900473ffffffffffffffffffffffffffffffffffffffff1673ffffffffffffffffffffffffffffffffffffffff1673ffffffffffffffffffffffffffffffffffffffff16815260200160018201548152505081526020019060010190611121565b505050506119c4565b90508092505050919050565b6060600060016000848152602001908152602001600020805480602002602001604051908101604052809291908181526020016000905b8282101561129157838290600052602060002090600202016040518060400160405290816000820160009054906101000a900473ffffffffffffffffffffffffffffffffffffffff1673ffffffffffffffffffffffffffffffffffffffff1673ffffffffffffffffffffffffffffffffffffffff168152602001600182015481525050815260200190600101906111ff565b50505050905080915050919050565b600081600060026001836112b49190612610565b815481106112eb577f4e487b7100000000000000000000000000000000000000000000000000000000600052603260045260246000fd5b906000526020600020906004020160405180608001604052908160008201548152602001600182015481526020016002820154815260200160038201548152505090506000816040015114611375576040517f08c379a000000000000000000000000000000000000000000000000000000000815260040161136c906123aa565b60405180910390fd5b80602001516001600084815260200190815260200160002080549050106113d1576040517f08c379a00000000000000000000000000000000000000000000000000000000081526004016113c89061242a565b60405180910390fd5b600060016000848152602001908152602001600020805480602002602001604051908101604052809291908181526020016000905b8282101561149857838290600052602060002090600202016040518060400160405290816000820160009054906101000a900473ffffffffffffffffffffffffffffffffffffffff1673ffffffffffffffffffffffffffffffffffffffff1673ffffffffffffffffffffffffffffffffffffffff16815260200160018201548152505081526020019060010190611406565b50505050905060005b8151811015611570573373ffffffffffffffffffffffffffffffffffffffff168282815181106114fa577f4e487b7100000000000000000000000000000000000000000000000000000000600052603260045260246000fd5b60200260200101516000015173ffffffffffffffffffffffffffffffffffffffff16141561155d576040517f08c379a00000000000000000000000000000000000000000000000000000000081526004016115549061244a565b60405180910390fd5b80806115689061268c565b9150506114a1565b50600060026001876115829190612610565b815481106115b9577f4e487b7100000000000000000000000000000000000000000000000000000000600052603260045260246000fd5b906000526020600020906004020160405180608001604052908160008201548152602001600182015481526020016002820154815260200160038201548152505090506001600087815260200190815260200160002060405180604001604052803373ffffffffffffffffffffffffffffffffffffffff1681526020016000815250908060018154018082558091505060019003906000526020600020906002020160009091909190915060008201518160000160006101000a81548173ffffffffffffffffffffffffffffffffffffffff021916908373ffffffffffffffffffffffffffffffffffffffff1602179055506020820151816001015550507f134294d32f883609d3808c2f303594281e098806bd66705fc96f8ebf5c54c0dc86336040516116e89291906124a0565b60405180910390a18060200151600160008881526020019081526020016000208054905014156117eb57428160400181815250506102584261172a91906125ba565b8160600181815250508060026001886117439190612610565b8154811061177a577f4e487b7100000000000000000000000000000000000000000000000000000000600052603260045260246000fd5b9060005260206000209060040201600082015181600001556020820151816001015560408201518160020155606082015181600301559050507f6092323421a4a860e7644d69619f90504d467bc4d0ef357c6c17e786217500c5866040516117e29190612485565b60405180910390a15b6001945050505050919050565b61025881565b611806611882565b600073ffffffffffffffffffffffffffffffffffffffff168173ffffffffffffffffffffffffffffffffffffffff161415611876576040517f08c379a000000000000000000000000000000000000000000000000000000000815260040161186d9061236a565b60405180910390fd5b61187f81611900565b50565b61188a611d5a565b73ffffffffffffffffffffffffffffffffffffffff166118a8610fdc565b73ffffffffffffffffffffffffffffffffffffffff16146118fe576040517f08c379a00000000000000000000000000000000000000000000000000000000081526004016118f5906123ca565b60405180910390fd5b565b60008060009054906101000a900473ffffffffffffffffffffffffffffffffffffffff169050816000806101000a81548173ffffffffffffffffffffffffffffffffffffffff021916908373ffffffffffffffffffffffffffffffffffffffff1602179055508173ffffffffffffffffffffffffffffffffffffffff168173ffffffffffffffffffffffffffffffffffffffff167f8be0079c531659141344cd1fd0a4f28419497f9722a3daafe3b4186f6b6457e060405160405180910390a35050565b606060005b600183516119d79190612610565b811015611d515760006001826119ed91906125ba565b90505b8351811015611d3d57838181518110611a32577f4e487b7100000000000000000000000000000000000000000000000000000000600052603260045260246000fd5b602002602001015160200151848381518110611a77577f4e487b7100000000000000000000000000000000000000000000000000000000600052603260045260246000fd5b6020026020010151602001511015611d2a576000848381518110611ac4577f4e487b7100000000000000000000000000000000000000000000000000000000600052603260045260246000fd5b60200260200101516020015190506000858481518110611b0d577f4e487b7100000000000000000000000000000000000000000000000000000000600052603260045260246000fd5b6020026020010151600001519050858381518110611b54577f4e487b7100000000000000000000000000000000000000000000000000000000600052603260045260246000fd5b602002602001015160200151868581518110611b99577f4e487b7100000000000000000000000000000000000000000000000000000000600052603260045260246000fd5b60200260200101516020018181525050858381518110611be2577f4e487b7100000000000000000000000000000000000000000000000000000000600052603260045260246000fd5b602002602001015160000151868581518110611c27577f4e487b7100000000000000000000000000000000000000000000000000000000600052603260045260246000fd5b60200260200101516000019073ffffffffffffffffffffffffffffffffffffffff16908173ffffffffffffffffffffffffffffffffffffffff168152505081868581518110611c9f577f4e487b7100000000000000000000000000000000000000000000000000000000600052603260045260246000fd5b6020026020010151602001818152505080868481518110611ce9577f4e487b7100000000000000000000000000000000000000000000000000000000600052603260045260246000fd5b60200260200101516000019073ffffffffffffffffffffffffffffffffffffffff16908173ffffffffffffffffffffffffffffffffffffffff168152505050505b8080611d359061268c565b9150506119f0565b508080611d499061268c565b9150506119c9565b50819050919050565b600033905090565b6040518060800160405280600081526020016000815260200160008152602001600081525090565b600081359050611d9981612704565b92915050565b600081359050611dae8161271b565b92915050565b600060208284031215611dc657600080fd5b6000611dd484828501611d8a565b91505092915050565b600060208284031215611def57600080fd5b6000611dfd84828501611d9f565b91505092915050565b600080600060608486031215611e1b57600080fd5b6000611e2986828701611d9f565b9350506020611e3a86828701611d8a565b9250506040611e4b86828701611d9f565b9150509250925092565b60008060408385031215611e6857600080fd5b6000611e7685828601611d9f565b9250506020611e8785828601611d9f565b9150509250929050565b6000611e9d83836121d0565b60808301905092915050565b6000611eb5838361227a565b60408301905092915050565b611eca81612644565b82525050565b611ed981612644565b82525050565b6000611eea82612557565b611ef48185612587565b9350611eff83612537565b8060005b83811015611f30578151611f178882611e91565b9750611f228361256d565b925050600181019050611f03565b5085935050505092915050565b6000611f4882612562565b611f528185612598565b9350611f5d83612547565b8060005b83811015611f8e578151611f758882611ea9565b9750611f808361257a565b925050600181019050611f61565b5085935050505092915050565b611fa481612656565b82525050565b6000611fb76026836125a9565b91507f4f776e61626c653a206e6577206f776e657220697320746865207a65726f206160008301527f64647265737300000000000000000000000000000000000000000000000000006020830152604082019050919050565b600061201d601c836125a9565b91507f546f75726e616d656e7420697320616c726561647920656e64656421000000006000830152602082019050919050565b600061205d601e836125a9565b91507f546f75726e616d656e7420697320616c726561647920737461727465642100006000830152602082019050919050565b600061209d6020836125a9565b91507f4f776e61626c653a2063616c6c6572206973206e6f7420746865206f776e65726000830152602082019050919050565b60006120dd601e836125a9565b91507f546f75726e616d656e74206973206e6f742073746172746564207965742100006000830152602082019050919050565b600061211d601c836125a9565b91507f546f75726e616d656e7420686173206e6f7420656e64656420796574000000006000830152602082019050919050565b600061215d6012836125a9565b91507f546f75726e616d656e742069732066756c6c00000000000000000000000000006000830152602082019050919050565b600061219d6017836125a9565b91507f596f752061726520616c7265616479206a6f696e6564210000000000000000006000830152602082019050919050565b6080820160008201516121e660008501826122a9565b5060208201516121f960208501826122a9565b50604082015161220c60408501826122a9565b50606082015161221f60608501826122a9565b50505050565b60808201600082015161223b60008501826122a9565b50602082015161224e60208501826122a9565b50604082015161226160408501826122a9565b50606082015161227460608501826122a9565b50505050565b6040820160008201516122906000850182611ec1565b5060208201516122a360208501826122a9565b50505050565b6122b281612682565b82525050565b6122c181612682565b82525050565b60006020820190506122dc6000830184611ed0565b92915050565b60006040820190506122f76000830185611ed0565b61230460208301846122b8565b9392505050565b600060208201905081810360008301526123258184611edf565b905092915050565b600060208201905081810360008301526123478184611f3d565b905092915050565b60006020820190506123646000830184611f9b565b92915050565b6000602082019050818103600083015261238381611faa565b9050919050565b600060208201905081810360008301526123a381612010565b9050919050565b600060208201905081810360008301526123c381612050565b9050919050565b600060208201905081810360008301526123e381612090565b9050919050565b60006020820190508181036000830152612403816120d0565b9050919050565b6000602082019050818103600083015261242381612110565b9050919050565b6000602082019050818103600083015261244381612150565b9050919050565b6000602082019050818103600083015261246381612190565b9050919050565b600060808201905061247f6000830184612225565b92915050565b600060208201905061249a60008301846122b8565b92915050565b60006040820190506124b560008301856122b8565b6124c26020830184611ed0565b9392505050565b60006040820190506124de60008301856122b8565b6124eb60208301846122b8565b9392505050565b600060808201905061250760008301876122b8565b61251460208301866122b8565b61252160408301856122b8565b61252e60608301846122b8565b95945050505050565b6000819050602082019050919050565b6000819050602082019050919050565b600081519050919050565b600081519050919050565b6000602082019050919050565b6000602082019050919050565b600082825260208201905092915050565b600082825260208201905092915050565b600082825260208201905092915050565b60006125c582612682565b91506125d083612682565b9250827fffffffffffffffffffffffffffffffffffffffffffffffffffffffffffffffff03821115612605576126046126d5565b5b828201905092915050565b600061261b82612682565b915061262683612682565b925082821015612639576126386126d5565b5b828203905092915050565b600061264f82612662565b9050919050565b60008115159050919050565b600073ffffffffffffffffffffffffffffffffffffffff82169050919050565b6000819050919050565b600061269782612682565b91507fffffffffffffffffffffffffffffffffffffffffffffffffffffffffffffffff8214156126ca576126c96126d5565b5b600182019050919050565b7f4e487b7100000000000000000000000000000000000000000000000000000000600052601160045260246000fd5b61270d81612644565b811461271857600080fd5b50565b61272481612682565b811461272f57600080fd5b5056fea2646970667358221220580688a1ba47216d4a6559b12e2af8167a483eb5759d8ce2d00fc0ab78f2c5ab64736f6c63430008000033",
  "linkReferences": {},
  "deployedLinkReferences": {}
}